{
  "_format": "hh-sol-artifact-1",
  "contractName": "UniswapIntegration",
  "sourceName": "contracts/UniswapIntegration.sol",
  "abi": [
    {
      "inputs": [],
      "stateMutability": "nonpayable",
      "type": "constructor"
    },
    {
      "inputs": [
        {
          "internalType": "address",
          "name": "_uniswap",
          "type": "address"
        }
      ],
      "name": "setUniswap",
      "outputs": [],
      "stateMutability": "nonpayable",
      "type": "function"
    },
    {
      "inputs": [
        {
          "internalType": "uint256",
          "name": "ethAmount",
          "type": "uint256"
        }
      ],
      "name": "swapEthMatic",
      "outputs": [
        {
          "internalType": "uint256",
          "name": "maticAmount",
          "type": "uint256"
        }
      ],
      "stateMutability": "nonpayable",
      "type": "function"
    },
    {
      "inputs": [
        {
          "internalType": "uint256",
          "name": "maticAmount",
          "type": "uint256"
        }
      ],
      "name": "swapMaticEth",
      "outputs": [
        {
          "internalType": "uint256",
          "name": "ethAmount",
          "type": "uint256"
        }
      ],
      "stateMutability": "nonpayable",
      "type": "function"
    },
    {
      "inputs": [],
      "name": "uniswap",
      "outputs": [
        {
          "internalType": "contract ISwapRouter",
          "name": "",
          "type": "address"
        }
      ],
      "stateMutability": "view",
      "type": "function"
    }
  ],
  "bytecode": "0x6080604052348015600f57600080fd5b5073e592427a0aece92de3edee1f18e0157c058615646000806101000a81548173ffffffffffffffffffffffffffffffffffffffff021916908373ffffffffffffffffffffffffffffffffffffffff160217905550610b52806100736000396000f3fe608060405234801561001057600080fd5b506004361061004c5760003560e01c80632681f7e414610051578063870342601461006f5780638caf590d1461009f5780638efecdda146100cf575b600080fd5b6100596100eb565b6040516100669190610674565b60405180910390f35b610089600480360381019061008491906106ca565b61010f565b6040516100969190610706565b60405180910390f35b6100b960048036038101906100b491906106ca565b61014b565b6040516100c69190610706565b60405180910390f35b6100e960048036038101906100e4919061075f565b610187565b005b60008054906101000a900473ffffffffffffffffffffffffffffffffffffffff1681565b6000610144730d500b1d8e8ef31e21c99d1db9a6444d3adf1270737ceb23fd6bc0add59e62ac25578270cff1b9f619846101ca565b9050919050565b6000610180737ceb23fd6bc0add59e62ac25578270cff1b9f619730d500b1d8e8ef31e21c99d1db9a6444d3adf1270846101ca565b9050919050565b806000806101000a81548173ffffffffffffffffffffffffffffffffffffffff021916908373ffffffffffffffffffffffffffffffffffffffff16021790555050565b60006101d884333085610348565b6102038460008054906101000a900473ffffffffffffffffffffffffffffffffffffffff16846104a0565b60006040518061010001604052808673ffffffffffffffffffffffffffffffffffffffff1681526020018573ffffffffffffffffffffffffffffffffffffffff168152602001610bb862ffffff1681526020013373ffffffffffffffffffffffffffffffffffffffff16815260200142815260200184815260200160008152602001600073ffffffffffffffffffffffffffffffffffffffff16815250905060008054906101000a900473ffffffffffffffffffffffffffffffffffffffff1673ffffffffffffffffffffffffffffffffffffffff1663414bf389826040518263ffffffff1660e01b81526004016102fb9190610879565b6020604051808303816000875af115801561031a573d6000803e3d6000fd5b505050506040513d601f19601f8201168201806040525081019061033e91906108aa565b9150509392505050565b6000808573ffffffffffffffffffffffffffffffffffffffff166323b872dd60e01b86868660405160240161037f939291906108e6565b604051602081830303815290604052907bffffffffffffffffffffffffffffffffffffffffffffffffffffffff19166020820180517bffffffffffffffffffffffffffffffffffffffffffffffffffffffff83818316178352505050506040516103e9919061098e565b6000604051808303816000865af19150503d8060008114610426576040519150601f19603f3d011682016040523d82523d6000602084013e61042b565b606091505b5091509150818015610459575060008151148061045857508080602001905181019061045791906109dd565b5b5b610498576040517f08c379a000000000000000000000000000000000000000000000000000000000815260040161048f90610a67565b60405180910390fd5b505050505050565b6000808473ffffffffffffffffffffffffffffffffffffffff1663095ea7b360e01b85856040516024016104d5929190610a87565b604051602081830303815290604052907bffffffffffffffffffffffffffffffffffffffffffffffffffffffff19166020820180517bffffffffffffffffffffffffffffffffffffffffffffffffffffffff838183161783525050505060405161053f919061098e565b6000604051808303816000865af19150503d806000811461057c576040519150601f19603f3d011682016040523d82523d6000602084013e610581565b606091505b50915091508180156105af57506000815114806105ae5750808060200190518101906105ad91906109dd565b5b5b6105ee576040517f08c379a00000000000000000000000000000000000000000000000000000000081526004016105e590610afc565b60405180910390fd5b5050505050565b600073ffffffffffffffffffffffffffffffffffffffff82169050919050565b6000819050919050565b600061063a610635610630846105f5565b610615565b6105f5565b9050919050565b600061064c8261061f565b9050919050565b600061065e82610641565b9050919050565b61066e81610653565b82525050565b60006020820190506106896000830184610665565b92915050565b600080fd5b6000819050919050565b6106a781610694565b81146106b257600080fd5b50565b6000813590506106c48161069e565b92915050565b6000602082840312156106e0576106df61068f565b5b60006106ee848285016106b5565b91505092915050565b61070081610694565b82525050565b600060208201905061071b60008301846106f7565b92915050565b600061072c826105f5565b9050919050565b61073c81610721565b811461074757600080fd5b50565b60008135905061075981610733565b92915050565b6000602082840312156107755761077461068f565b5b60006107838482850161074a565b91505092915050565b61079581610721565b82525050565b600062ffffff82169050919050565b6107b38161079b565b82525050565b6107c281610694565b82525050565b6107d1816105f5565b82525050565b610100820160008201516107ee600085018261078c565b506020820151610801602085018261078c565b50604082015161081460408501826107aa565b506060820151610827606085018261078c565b50608082015161083a60808501826107b9565b5060a082015161084d60a08501826107b9565b5060c082015161086060c08501826107b9565b5060e082015161087360e08501826107c8565b50505050565b60006101008201905061088f60008301846107d7565b92915050565b6000815190506108a48161069e565b92915050565b6000602082840312156108c0576108bf61068f565b5b60006108ce84828501610895565b91505092915050565b6108e081610721565b82525050565b60006060820190506108fb60008301866108d7565b61090860208301856108d7565b61091560408301846106f7565b949350505050565b600081519050919050565b600081905092915050565b60005b83811015610951578082015181840152602081019050610936565b60008484015250505050565b60006109688261091d565b6109728185610928565b9350610982818560208601610933565b80840191505092915050565b600061099a828461095d565b915081905092915050565b60008115159050919050565b6109ba816109a5565b81146109c557600080fd5b50565b6000815190506109d7816109b1565b92915050565b6000602082840312156109f3576109f261068f565b5b6000610a01848285016109c8565b91505092915050565b600082825260208201905092915050565b7f5354460000000000000000000000000000000000000000000000000000000000600082015250565b6000610a51600383610a0a565b9150610a5c82610a1b565b602082019050919050565b60006020820190508181036000830152610a8081610a44565b9050919050565b6000604082019050610a9c60008301856108d7565b610aa960208301846106f7565b9392505050565b7f5341000000000000000000000000000000000000000000000000000000000000600082015250565b6000610ae6600283610a0a565b9150610af182610ab0565b602082019050919050565b60006020820190508181036000830152610b1581610ad9565b905091905056fea2646970667358221220ad57b302e0ab6b2840500755ed582b3b9a32ab9ea3a9a218615fc0a097d460a664736f6c634300081c0033",
  "linkReferences": {},
  "deployedLinkReferences": {}
}